:020000040800F2
:10000000200400200101000819070008BB030008B4
:100010001507000849010008090D0008000000004C
:10002000000000000000000000000000950A000829
:100030004D01000800000000730A0008810B000851
:100040001B0100081B0100081B0100081B01000820
:100050001B0100081B01000895010008C9010008E8
:100060001B0100081B0100081B0100081B01000800
:100070001B0100081B0100081B0100081B010008F0
:100080001B0100081B0100081B0100081B010008E0
:100090001B0100081B0100081B0100081B010008D0
:1000A0001B0100081B0100081B0100081B010008C0
:1000B0001B0100081B0100081B0100081B010008B0
:1000C0001B0100081B0100081B0100081B010008A0
:1000D0001B010008E50B00081B0100081B010008BC
:1000E0001B0100081B0100081B010008DFF80CD0F1
:1000F00000F018F8004800472D0D000820040020EB
:100100000648804706480047FEE7FEE7FEE7FEE7B1
:10011000FEE7FEE7FEE7FEE7FEE7FEE7850B0008E9
:10012000ED000008064C074D06E0E06840F00103D2
:1001300094E8070098471034AC42F6D3FFF7DAFF93
:10014000041400082414000800BFFEE7704700B53F
:10015000034603E04FF47A7000F005F8181EA3F18F
:100160000103F7D100BD00EBC001C9004FF0E02250
:100170005161002191610521116100BF4FF0E02123
:10018000096901F480310029F8D004214FF0E02200
:100190001161704710B5012000F036F801280DD12B
:1001A0000221074800F0C7F828B906480088401C1B
:1001B00000B204490880012000F020F810BD0000C2
:1001C000000C01400E00002010B5022000F01CF8C9
:1001D00001280DD10121074800F0ADF828B90648E3
:1001E0000088401E00B204490880022000F006F892
:1001F00010BD0000000C01400E0000200149086005
:10020000704700001404014001460020034A1268B0
:100210000A400AB1012000E00020704714040140A8
:100220002DE9F0410246002500260020002300248D
:10023000002791F803C00CF00F0591F803C00CF0F3
:10024000100CBCF1000F03D091F802C04CEA050578
:1002500091F800C0BCF1000F31D0146800202BE0F1
:100260004FF0010C0CFA00F3B1F800C00CEA0306E1
:100270009E4220D183004FF00F0C0CFA03F7BC43D1
:1002800005FA03FC4CEA040491F803C0BCF1280F02
:1002900006D14FF0010C0CFA00FCC2F814C00AE0C1
:1002A00091F803C0BCF1480F05D14FF0010C0CFAD6
:1002B00000FCC2F810C0401C0828D1D31460B1F86B
:1002C00000C0BCF1FF0F34DD546800202EE000F1C7
:1002D000080C4FF0010808FA0CF3B1F800C00CEA62
:1002E00003069E4221D183004FF00F0C0CFA03F756
:1002F000BC4305FA03FC4CEA040491F803C0BCF1CA
:10030000280F05D100F1080C08FA0CF8C2F8148087
:1003100091F803C0BCF1480F07D100F1080C4FF071
:10032000010808FA0CF8C2F81080401C0828CED347
:100330005460BDE8F0810246002093680B400BB189
:10034000012000E00020704701461248814201D19F
:10035000042070471048814201D10820F9E70F4876
:10036000814201D11020F4E70D48814201D12020C3
:10037000EFE70C48814201D14020EAE70A48814278
:1003800001D18020E5E70948814201D18015E0E7ED
:100390000020DEE700080140000C01400010014091
:1003A0000014014000180140001C014000200140E1
:1003B0000AB1016100E04161704700BFFEE7000043
:1003C00000B540200949086000F012F88020074974
:1003D000086000F00DF840200449091F086000F093
:1003E00007F840200149086000BD000014080140E2
:1003F00008B51E20009000BF9DF80000411EC9B244
:1004000000910028F8D108BD00B5402009490860D6
:10041000FFF7EEFF80200749091F0860FFF7E8FF9C
:1004200040200449091F0860FFF7E2FF402001490E
:10043000086000BD1408014030B5044600250022C4
:100440004020144908608020091F0860FFF7D0FF92
:10045000002215E040200F49091F0860FFF7C8FF80
:100460000C480C38006800F0800010B1802010416A
:100470000543402007490860FFF7BAFF501CC2B28D
:10048000082AE7DB14B1FFF79BFF01E0FFF7BCFF91
:10049000284630BD1408014010B504460022402013
:1004A0001F49086080200860FFF7A2FF002216E0C5
:1004B00080201041204020B180201949091F086088
:1004C00002E080201649086040201549091F086095
:1004D000FFF78EFF402012490860501CC2B2082A64
:1004E000E6DB40200E4908608020091F0860FFF706
:1004F0007FFF40200A49091F0860FFF779FF08487D
:100500000C38006800F0800020B1402004490860E9
:10051000012010BD4020024908600020F9E70000DA
:100520001408014038B51848FFF70EFF0546164875
:10053000FFF70AFF45EA00040CB900BFFEE70121FE
:10054000204600F097FA4020ADF8000014208DF806
:10055000030003208DF8020069460B48FFF760FE98
:100560008020ADF8000014208DF8030003208DF8E2
:10057000020069460448FFF753FE4020024910314B
:1005800008608020086038BD0008014000B54020A8
:100590000849086080200860FFF72AFF802005498D
:1005A000091D0860FFF724FF40200249091D08606B
:1005B00000BD00001008014000B540200849086057
:1005C00080200860FFF714FF40200549091F0860DC
:1005D000FFF70EFF80200249091F086000BD0000E0
:1005E0001408014010B5FFF79DFF01216B2000F0BA
:1005F0007DF800216C2000F079F80921192000F025
:1006000075F806211A2000F071F818211B2000F05F
:100610006DF818211C2000F069F810BD70B5044673
:1006200000250026FFF7B2FF2F490878FFF734FFB7
:100630003B20FFF731FFFFF7A9FF2B49097841F075
:100640000100FFF729FF0120FFF7F6FE0546012014
:10065000FFF7F2FE064646EA052000B220800120A0
:10066000FFF7EAFE05460120FFF7E6FE064646EAEA
:10067000052000B260800120FFF7DEFE0546012064
:10068000FFF7DAFE064646EA052000B2A080012008
:10069000FFF7D2FE0120FFF7CFFE0120FFF7CCFECF
:1006A00005460120FFF7C8FE064646EA052000B2CF
:1006B000E0800120FFF7C0FE05460120FFF7BCFEE9
:1006C000064646EA052000B220810120FFF7B4FE6D
:1006D00005460020FFF7B0FE064646EA052000B2B8
:1006E0006081FFF769FF70BD1000002070B50546FE
:1006F0000C46FFF74BFF06490878FFF7CDFE28466A
:10070000FFF7CAFE2046FFF7C7FEFFF755FF70BD93
:100710001000002000BFFEE7704770B500240EE017
:100720000021204600F0F3F8002504E0002000F04E
:1007300090F9681CC5B2802DF8DB601CC4B2082C8F
:10074000EEDB70BD08B50121082000F093F91420FC
:100750008DF8030003208DF802004FF48070ADF88F
:10076000000069460A48FFF75BFD4FF40070ADF8E2
:10077000000069460648FFF753FD012211020448B4
:10078000FFF716FE012251020148FFF711FE08BDD6
:10079000000C014070B50546002419E0802020417E
:1007A000284008B1012000E0002002464FF400710B
:1007B0000E48FFF7FDFD012211020C48FFF7F8FD7E
:1007C00000224FF480710948FFF7F2FD601CC4B2AB
:1007D000082CE3DB012211020448FFF7E9FD0022A7
:1007E0004FF480710148FFF7E3FD70BD000C01403C
:1007F00010B5012251020A48FFF7DAFD0122110269
:100800000748FFF7D5FD00224FF400710448FFF7B9
:10081000CFFD00224FF480710148FFF7C9FD10BDE4
:10082000000C014010B500224FF400710648FFF79C
:10083000BFFD012211020448FFF7BAFD0122510257
:100840000148FFF7B5FD10BD000C014070B5002454
:1008500006E0002500E06D1CB5F57A7FFBD3641C33
:10086000B4F57A7FF5D3FFF76DFFAE2000F0E1F825
:10087000D52000F0DEF8802000F0DBF8A82000F0A2
:10088000D8F83F2000F0D5F8D32000F0D2F80020AF
:1008900000F0CFF8402000F0CCF8A12000F0C9F81B
:1008A000C82000F0C6F8DA2000F0C3F8122000F0EB
:1008B000C0F8812000F0BDF8CF2000F0BAF8D920B0
:1008C00000F0B7F8F12000F0B4F8DB2000F0B1F848
:1008D000302000F0AEF8A42000F0ABF8A62000F025
:1008E000A8F88D2000F0A5F8142000F0A2F8AF20A1
:1008F00000F09FF8FFF711FF70BD10B50246012010
:1009000000E050430B1EA1F10101FAD110BD70B5FA
:1009100005460C4645F0B00000F08BF8102141EA86
:10092000141000F086F804F00F0000F082F870BD9B
:100930002DE9F04105460E461746721ED206110EED
:100940006A1E5206100EFFF7E2FF002409E0A7F12D
:100950002001134A02EB0111085D00F07AF8601CD7
:10096000C4B2082CF3DB721ED206110E6A1E0123DC
:1009700003EB4202D0B2FFF7CAFF00240BE0A7F15D
:100980002001074A02EB011204F10801505C00F05B
:1009900060F8601CC4B2082CF1DBBDE8F0810000F7
:1009A000140E00082DE9F0478146884615461E467C
:1009B000002D06DB2B2241464846FFF7B9FF2F46A4
:1009C00005E02D2241464846FFF7B2FF6F42002462
:1009D00017E0301B411E0A20FFF78FFFB7FBF0F036
:1009E0000A21B0FBF1F201FB120000F1300A08EB22
:1009F0000400401CC1B252464846FFF799FF601CF4
:100A0000C4B2B442E5DBBDE8F0872DE9F04107460A
:100A10000E461546002407E02A5D3019C1B238465B
:100A2000FFF786FF601CC4B2285D0028F4D1BDE842
:100A3000F08110B50446FFF7DBFE7820FFF7AAFE31
:100A40000020FFF7A7FE2046FFF7A4FEFFF7EAFE0F
:100A500010BD10B50446FFF7CBFE7820FFF79AFED5
:100A60004020FFF797FE2046FFF794FEFFF7DAFEDF
:100A700010BD704729B1064A92690243044B9A613E
:100A800004E0034A92698243014B9A617047000077
:100A900000100240704710B500F002F810BD0000D1
:100AA0000CB50020019000903348006840F480307D
:100AB0003149086000BF3048006800F40030009001
:100AC0000198401C0190009818B90198B0F5A06FEA
:100AD000F1D12948006800F4003010B101200090E5
:100AE00001E0002000900098012843D123480068CD
:100AF00040F01000214908600846006820F003001B
:100B000008600846006840F0020008601A48406823
:100B1000194948600846406848600846406840F403
:100B2000806048600846406820F47C1048600846B1
:100B3000406840F4E81048600846006840F0807063
:100B4000086000BF0C48006800F000700028F9D071
:100B50000948406820F0030007494860084640689B
:100B600040F00200486000BF0348406800F00C00FD
:100B70000828F9D10CBD00000010024000200240FE
:100B80007047000010B51348006840F0010011499B
:100B9000086008464068104908400E494860084609
:100BA00000680E4908400B4908600846006820F4B8
:100BB000802008600846406820F4FE0048604FF43A
:100BC0001F008860FFF767FF4FF00060044908606E
:100BD00010BD0000001002400000FFF8FFFFF6FE0D
:100BE00008ED00E010B540F22551214800F05DF815
:100BF00000283CD01E4800F082F8C4B21D4800789E
:100C000020B101280BD0022822D118E0FF2C05D1F9
:100C10000120184908700020174908701CE0164888
:100C200001780078401C144A10701448445410464F
:100C30000078042802DB02200E4908700CE0FE2C2C
:100C400002D101200E49087000200A49087003E013
:100C500000200849087000BF00BF0A480470012046
:100C60000949087040F22551014800F00FF810BD05
:100C7000003801400B0000200C0000200300002081
:100C800002000020010000200000002010B500221A
:100C9000002340F66A14A14200D100BF0A120124C9
:100CA0009440A3B2DC43048010BD70B5024600241A
:100CB00000230025002040F66A16B14200D100BF93
:100CC000C1F3421501F01F03012606FA03F3012DBB
:100CD00002D19689334006E0022D02D1168A3340B4
:100CE00001E0968A33400C12012606FA04F41688B5
:100CF000344013B10CB1012000E0002070BD01466A
:100D00008888C0F30800704700BFFEE702E008C80B
:100D1000121F08C1002AFAD170477047002001E075
:100D200001C1121F002AFBD170470000FFF78EFDA2
:100D3000FFF758FC2DA201210846FFF766FE2EA200
:100D400001210220FFF761FE2CA201210320FFF701
:100D50005CFE2BA201210420FFF757FE29A20921E6
:100D60000220FFF752FE28A209210320FFF74DFEC3
:100D700026A209210420FFF748FE35E02448FFF7AA
:100D80004DFC2348B0F90020042303210220FFF783
:100D900009FE1F48B0F90220042303210846FFF78B
:100DA00001FE1B48B0F90420042303211846FFF775
:100DB000F9FD1748B0F9062004230C210220FFF7A3
:100DC000F1FD1348B0F9082004230C210320FFF79C
:100DD000E9FD0F48B0F90A2004230C211846FFF75B
:100DE000E1FD0A20FFF7B3F9C8E700004D50553682
:100DF0003035303A00000000583A0000593A0000FF
:100E00005A3A000058613A0059613A005A613A0072
:100E1000140000200000000000000000000000009E
:100E200000000000000000F8000000000000003397
:100E30003000000000100C06100C0600000000003E
:100E40000000000040C07840C0784000043F040427
:100E50003F040400007088FC08300000001820FFE8
:100E6000211E0000F008F000E018000000211C0323
:100E70001E211E0000F00888700000001E2123249F
:100E80001927211010160E000000000000000000BD
:100E900000000000000000E018040200000000074D
:100EA0001820400000020418E00000000040201854
:100EB00007000000404080F0804040000202010F27
:100EC00001020200000000F0000000000101011F0B
:100ED00001010100000000000000000080B070006F
:100EE00000000000000000000000000000010101FF
:100EF000010101010000000000000000003030008E
:100F00000000000000000000806018040060180667
:100F10000100000000E010080810E000000F1020A1
:100F200020100F00001010F8000000000020203FEB
:100F30002020000000700808088870000030282475
:100F40002221300000300888884830000018202016
:100F500020110E000000C02010F80000000704243B
:100F6000243F240000F80888880808000019212080
:100F700020110E0000E0108888180000000F1120DA
:100F800020110E0000380808C83808000000003F93
:100F9000000000000070880808887000001C2221F2
:100FA00021221C0000E010080810E000000031229F
:100FB00022110F00000000C0C0000000000000303F
:100FC0003000000000000080000000000000806091
:100FD0000000000000008040201008000001020412
:100FE00008102000404040404040400004040404F9
:100FF00004040400000810204080000000201008B5
:1010000004020100007048080808F00000000030E9
:1010100036010000C030C828E810E0000718272477
:1010200023140B000000C038E0000000203C230225
:101030000227382008F8888888700000203F202088
:1010400020110E00C03008080808380007182020BA
:101050002010080008F808080810E000203F2020B1
:1010600020100F0008F88888E8081000203F202092
:101070002320180008F88888E8081000203F200086
:1010800003000000C03008080838000007182020BE
:10109000221E020008F808000008F808203F21017D
:1010A00001213F20000808F8080800000020203F28
:1010B0002020000000000808F8080800C080808098
:1010C0007F00000008F888C028180800203F200191
:1010D0002638200008F8080000000000203F2020EB
:1010E0002020300008F8F800F8F80800203F003F02
:1010F000003F200008F830C00008F808203F20001A
:1011000007183F00E01008080810E0000F1020202A
:1011100020100F0008F808080808F000203F2101FF
:1011200001010000E01008080810E0000F18242456
:1011300038504F0008F8888888887000203F2000C9
:10114000030C30200070880808083800003820217F
:1011500021221C00180808F8080818000000203F89
:101160002000000008F808000008F808001F2020F0
:1011700020201F000878880000C8380800000738C1
:101180000E010000F80800F80008F800033C070012
:10119000073C0300081868808068180820302C037A
:1011A000032C30200838C800C83808000000203F51
:1011B0002000000010080808C83808002038262140
:1011C00020201800000000FE020202000000007F44
:1011D00040404000000C30C0000000000000000152
:1011E0000638C00000020202FE000000004040403D
:1011F0007F00000000000402020204000000000062
:1012000000000000000000000000000080808080DE
:1012100080808080000202040000000000000000C6
:10122000000000000000808080800000001924225F
:1012300022223F2008F8008080000000003F11209B
:1012400020110E000000008080800000000E1120A0
:1012500020201100000000808088F800000E11207E
:1012600020103F200000808080800000001F22228C
:1012700022221300008080F0888888180020203FF8
:10128000202000000000808080808000006B94940B
:101290009493600008F8008080800000203F2100C7
:1012A00000203F2000809898000000000020203F90
:1012B00020200000000000809898000000C080807E
:1012C000807F000008F8000080808000203F24021A
:1012D0002D302000000808F8000000000020203F0A
:1012E000202000008080808080808000203F2000BF
:1012F0003F20003F8080008080800000203F210050
:1013000000203F200000808080800000001F2020FF
:1013100020201F00808000808000000080FFA1202E
:1013200020110E000000008080808000000E11203F
:1013300020A0FF80808080008080800020203F21CE
:101340002000010000008080808080000033242481
:1013500024241900008080E0808000000000001F2D
:10136000202000008080000000808000001F2020DE
:1013700020103F20808080000080808000010E309F
:101380000806010080800080008080800F300C0300
:101390000C300F0000808000808080000020312E03
:1013A0000E312000808080000080808080818E70DF
:1013B0001806010000808080808080000021302C91
:1013C0002221300000000000807C020200000000AA
:1013D000003F404000000000FF000000000000004F
:1013E000FF0000000002027C800000000040403F3F
:1013F00000000000000601010202040400000000D9
:101400000000000024140008000000201400000068
:101410000C0D000838140008140000200C04000013
:101420001C0D00080000000000000000000000008B
:0814300000000000D0000000E4
:04000005080000ED02
:00000001FF
