:020000040800F2
:100000008006002089010008570400084F040008FA
:1000100053040008430200085B0B000800000000C6
:100020000000000000000000000000009908000827
:100030004702000800000000A10700088509000829
:10004000A3010008A3010008A3010008A301000800
:10005000A3010008A301000891020008C5020008DE
:10006000A3010008A3010008A3010008A3010008E0
:10007000A3010008A3010008A3010008A3010008D0
:10008000A3010008A3010008A3010008A3010008C0
:10009000A3010008A3010008A3010008A3010008B0
:1000A000A3010008A3010008A3010008A3010008A0
:1000B000A3010008A3010008A3010008A301000890
:1000C000A3010008A3010008A3010008A301000880
:1000D000A3010008A3010008A3010008A301000870
:1000E000A3010008A3010008A301000800F002F822
:1000F00000F03AF80AA090E8000C82448344AAF188
:100100000107DA4501D100F02FF8AFF2090EBAE885
:100110000F0013F0010F18BFFB1A43F0010318473B
:100120001811000038110000103A24BF78C878C1B7
:10013000FAD8520724BF30C830C144BF04680C60ED
:10014000704700000023002400250026103A28BF35
:1001500078C1FBD8520728BF30C148BF0B60704739
:100160001FB51FBD10B510BD00F031F81146FFF7E7
:10017000F7FF00F037FD00F04FF803B4FFF7F2FF90
:1001800003BC00F057F800000948804709480047C1
:10019000FEE7FEE7FEE7FEE7FEE7FEE7FEE7FEE737
:1001A000FEE7FEE704480549054A064B7047000094
:1001B00089090008ED00000880000020800600206A
:1001C000800200208002002070477047704775460B
:1001D00000F02CF8AE4605006946534620F00700B3
:1001E000854618B020B5FFF7DDFFBDE820404FF091
:1001F00000064FF000074FF000084FF0000B21F011
:100200000701AC46ACE8C009ACE8C009ACE8C009DD
:10021000ACE8C0098D46704710B50446AFF30080C6
:100220002046BDE81040FFF7A8BF00000048704717
:100230001C00002001491820ABBEFEE7260002008A
:10024000704700BFFEE7704700B5034603E04FF478
:100250007A7000F005F8181EA3F10103F7D100BD74
:1002600000EBC001C9004FF0E02251610021916113
:100270000521116100BF4FF0E021096901F48031CF
:100280000029F8D004214FF0E022116170470000EE
:1002900010B5012000F036F801280DD102210748E1
:1002A00000F0C7F828B906480088401C00B204498D
:1002B0000880012000F020F810BD0000000C014073
:1002C0001A00002010B5022000F01CF801280DD102
:1002D0000121074800F0ADF828B906480088401E03
:1002E00000B204490880022000F006F810BD0000AA
:1002F000000C01401A00002001490860704700000E
:100300001404014001460020034A12680A400AB161
:10031000012000E000207047140401402DE9F04165
:10032000024600250026002000230024002791F823
:1003300003C00CF00F0591F803C00CF0100CBCF1D9
:10034000000F03D091F802C04CEA050591F800C0F7
:10035000BCF1000F31D0146800202BE04FF0010CED
:100360000CFA00F3B1F800C00CEA03069E4220D15B
:1003700083004FF00F0C0CFA03F7BC4305FA03FCA3
:100380004CEA040491F803C0BCF1280F06D14FF0E9
:10039000010C0CFA00FCC2F814C00AE091F803C08A
:1003A000BCF1480F05D14FF0010C0CFA00FCC2F86B
:1003B00010C0401C0828D1D31460B1F800C0BCF1B3
:1003C000FF0F34DD546800202EE000F1080C4FF0E0
:1003D000010808FA0CF3B1F800C00CEA03069E42CB
:1003E00021D183004FF00F0C0CFA03F7BC4305FA40
:1003F00003FC4CEA040491F803C0BCF1280F05D1BA
:1004000000F1080C08FA0CF8C2F8148091F803C047
:10041000BCF1480F07D100F1080C4FF0010808FAB1
:100420000CF8C2F81080401C0828CED35460BDE8F8
:10043000F0810246002093680B400BB1012000E0E0
:10044000002070470AB1016100E04161704700BFC0
:10045000FEE700BFFEE7704770B500240EE0002104
:10046000204600F0F4F8002504E0002000F088F9B0
:10047000681CC5B2802DF8DB601CC4B2082CEEDB12
:1004800070BD000008B50121082000F08BF9142090
:100490008DF8030003208DF802004FF48070ADF852
:1004A000000069460A48FFF739FF4FF40070ADF8C5
:1004B000000069460648FFF731FF01221102044897
:1004C000FFF7C0FF012251020148FFF7BBFF08BD43
:1004D000000C014070B50546002419E08020204141
:1004E000284008B1012000E0002002464FF40071CE
:1004F0000E48FFF7A7FF012211020C48FFF7A2FFE9
:1005000000224FF480710948FFF79CFF601CC4B2C1
:10051000082CE3DB012211020448FFF793FF0022BD
:100520004FF480710148FFF78DFF70BD000C014052
:1005300010B5012251020A48FFF784FF012211027F
:100540000748FFF77FFF00224FF400710448FFF7D0
:1005500079FF00224FF480710148FFF773FF10BD4F
:10056000000C014010B500224FF400710648FFF75F
:1005700069FF012211020448FFF764FF01225102C2
:100580000148FFF75FFF10BD000C014070B500246B
:1005900006E0002500E06D1CB5F57A7FFBD3641CF6
:1005A000B4F57A7FF5D3FFF76DFFAE2000F0D8F8F1
:1005B000D52000F0D5F8802000F0D2F8A82000F077
:1005C000CFF83F2000F0CCF8D32000F0C9F800208D
:1005D00000F0C6F8402000F0C3F8A12000F0C0F8F9
:1005E000C82000F0BDF8DA2000F0BAF8122000F0C0
:1005F000B7F8812000F0B4F8CF2000F0B1F8D9208E
:1006000000F0AEF8F12000F0ABF8DB2000F0A8F825
:10061000302000F0A5F8A42000F0A2F8A62000F0F9
:100620009FF88D2000F09CF8142000F099F8AF207E
:1006300000F096F8FFF710FF70BD10B502460120DC
:1006400000E050430B1EA1F10101FAD110BD70B5BD
:1006500005460C4645F0B00000F082F8102141EA52
:10066000141000F07DF804F00F0000F079F870BD70
:100670002DE9F04105460E461746721ED206110EB0
:100680006A1E5206100EFFF7E2FF002409E0A7F1F0
:100690002001134A02EB0111085D00F071F8601CA3
:1006A000C4B2082CF3DB721ED206110E6A1E01239F
:1006B00003EB4202D0B2FFF7CAFF00240BE0A7F120
:1006C0002001074A02EB011204F10801505C00F01E
:1006D00057F8601CC4B2082CF1DBBDE8F0810000C3
:1006E000480C00082DE9F04781460E4690461F460B
:1006F00000241DE0381B411E1020FFF79EFFB8FBB1
:10070000F0F000F00F050A2D08DA05F13000C2B252
:100710003019C1B24846FFF7ABFF07E005F13700DB
:10072000C2B23019C1B24846FFF7A2FF601CC4B282
:10073000BC42DFDBBDE8F0872DE9F04107460E46FD
:100740001546002407E02A5D3019C1B23846FFF78C
:100750008FFF601CC4B2285D0028F4D1BDE8F08191
:1007600010B50446FFF7E4FE7820FFF7B3FE002043
:10077000FFF7B0FE2046FFF7ADFEFFF7F3FE10BD1A
:1007800010B50446FFF7D4FE7820FFF7A3FE402003
:10079000FFF7A0FE2046FFF79DFEFFF7E3FE10BD2A
:1007A0007047000029B1064A92690243044B9A61DE
:1007B00004E0034A92698243014B9A61704700004A
:1007C0000010024030B500210022002400232D4DEE
:1007D0006D6805F00C0121B1042905D0082923D149
:1007E00005E0294D056022E0274D05601FE0254DFD
:1007F0006D6805F47012234D6D6805F48034022590
:1008000005EB92421CB9214D554305600BE01D4D8F
:100810006D6805F400351DB11C4D5543056002E0BF
:10082000194D5543056002E0174D056000BF00BF3C
:10083000144D6D6805F0F0010909154D6B5C0568F4
:10084000DD4045600F4D6D6805F4E061090A104D0B
:100850006B5C4568DD4085600A4D6D6805F460514C
:10086000C90A0B4D6B5C4568DD40C560054D6D6880
:1008700005F44041890B074D6B5CC568B5FBF3F58A
:10088000056130BD0010024000127A0000093D00F1
:100890000000002010000020704710B500F002F8A2
:1008A00010BD00000CB50020019000903348006896
:1008B00040F480303149086000BF3048006800F4DF
:1008C000003000900198401C0190009818B90198E0
:1008D000B0F5A06FF1D12948006800F4003010B1E4
:1008E0000120009001E0002000900098012843D1F1
:1008F0002348006840F0100021490860084600685D
:1009000020F0030008600846006840F0020008601C
:100910001A484068194948600846406848600846D7
:10092000406840F4806048600846406820F47C10CD
:1009300048600846406840F4E8104860084600688F
:1009400040F08070086000BF0C48006800F0007044
:100950000028F9D00948406820F0030007494860A2
:100960000846406840F00200486000BF0348406805
:1009700000F00C000828F9D10CBD00000010024066
:10098000002002407047000010B51348006840F096
:1009900001001149086008464068104908400E49A6
:1009A0004860084600680E4908400B490860084640
:1009B000006820F4802008600846406820F4FE00AB
:1009C00048604FF41F008860FFF767FF4FF000603A
:1009D0000449086010BD0000001002400000FFF84C
:1009E000FFFFF6FE08ED00E010B5024800F0ACF89D
:1009F000C0B210BD0038014070B505460E46002457
:100A000000BF07E0285D00F009F86420FFF728FC2C
:100A1000601CC4B2B442F5DB70BD000010B50446E2
:100A200000BF8021044800F015F80028F9D02146C5
:100A3000014800F08EF810BD0038014021B18289D4
:100A400042F40052828104E082894DF6FF731A401D
:100A50008281704702460020B1F5007F00D100BFBF
:100A600013880B400BB1012000E00020704700000C
:100A70002DE9F04786B005460E460024A24600BF89
:100A8000A1460027B08900B100BF2F462C8A4CF642
:100A9000FF700440F08804432C82AC894EF6F310BA
:100AA0000440B08831890843718908430443AC810C
:100AB000AC8A4FF6FF400440B0890443AC8201A8E1
:100AC000FFF780FE1F48874202D1DDF810A001E049
:100AD000DDF80CA0A88900F4004040B10AEBCA0080
:100AE00000EB0A1031684900B0FBF1F807E00AEBAF
:100AF000CA0000EB0A1031688900B0FBF1F86420ED
:100B0000B8FBF0F004012009642101FB1089A889D9
:100B100000F4004040B1322000EBC900B0FBF1F01E
:100B200000F00700044308E0322000EB09106421C4
:100B3000B0FBF1F000F00F0004432C8106B0BDE8DB
:100B4000F08700000038014001468888C0F30800A3
:100B50007047C1F308028280704700BFFEE70000C3
:100B600000B585B001218803FFF71CFE0121042098
:100B7000FFF718FE4FF40070ADF8100003208DF859
:100B8000120018208DF8130004A91448FFF7C6FBC3
:100B90004FF48060ADF8100004208DF8130004A914
:100BA0000E48FFF7BBFB4FF4165000900020ADF845
:100BB0000C000C20ADF80A000020ADF80800ADF8DC
:100BC0000600ADF8040069460548FFF751FF012112
:100BD0000348FFF733FF05B000BD000000080140E7
:100BE00000380140FFF7D2FCFFF7BAFF11A2012144
:100BF0000846FFF7A1FD1CE020211048FFF72AFF5F
:100C0000012803D1FFF7F0FE0D49087004230C48BA
:100C1000027806210120FFF765FD09480078FFF7FB
:100C2000FDFE05210748FFF7E7FE4FF4FA70FFF7D6
:100C30000BFBE1E74144373A000000000038014077
:100C4000140000201500002000000000000000003B
:100C50000000000000000000000000F8000000009C
:100C6000000000333000000000100C06100C0600DD
:100C7000000000000000000040C07840C078400044
:100C8000043F04043F040400007088FC08300000A6
:100C9000001820FF211E0000F008F000E0180000FE
:100CA00000211C031E211E0000F0088870000000B7
:100CB0001E2123241927211010160E000000000009
:100CC0000000000000000000000000E01804020026
:100CD000000000071820400000020418E000000097
:100CE0000040201807000000404080F08040400095
:100CF0000202010F01020200000000F000000000EB
:100D00000101011F010101000000000000000000BE
:100D100080B0700000000000000000000000000033
:100D200000010101010101010000000000000000BC
:100D30000030300000000000000000008060180457
:100D4000006018060100000000E010080810E00034
:100D5000000F102020100F00001010F800000000FD
:100D60000020203F20200000007008080888700044
:100D700000302824222130000030088888483000C4
:100D80000018202020110E000000C02010F80000E4
:100D900000070424243F240000F80888880808007D
:100DA0000019212020110E0000E010888818000092
:100DB000000F112020110E0000380808C838080064
:100DC0000000003F000000000070880808887000E4
:100DD000001C222121221C0000E010080810E00065
:100DE0000000312222110F00000000C0C0000000EE
:100DF0000000003030000000000000800000000013
:100E0000000080600000000000008040201008000A
:100E100000010204081020004040404040404000D3
:100E200004040404040404000008102040800000AE
:100E30000020100804020100007048080808F000B3
:100E40000000003036010000C030C828E810E00083
:100E50000718272423140B000000C038E00000000E
:100E6000203C23020227382008F888888870000078
:100E7000203F202020110E00C0300808080838004C
:100E8000071820202010080008F808080810E000C3
:100E9000203F202020100F0008F88888E808100064
:100EA000203F20202320180008F88888E808100038
:100EB000203F200003000000C03008080838000070
:100EC00007182020221E020008F808000008F80871
:100ED000203F210101213F20000808F808080000F8
:100EE0000020203F2020000000000808F80808002B
:100EF000C08080807F00000008F888C028180800A3
:100F0000203F20012638200008F8080000000000DB
:100F1000203F20202020300008F8F800F8F80800D2
:100F2000203F003F003F200008F830C00008F808CC
:100F3000203F200007183F00E01008080810E000DC
:100F40000F10202020100F0008F808080808F000F3
:100F5000203F210101010000E01008080810E00016
:100F60000F18242438504F0008F8888888887000AB
:100F7000203F2000030C302000708808080838004B
:100F80000038202121221C00180808F80808180041
:100F90000000203F2000000008F808000008F808C2
:100FA000001F202020201F000878880000C8380873
:100FB000000007380E010000F80800F80008F800EB
:100FC000033C0700073C0300081868808068180885
:100FD00020302C03032C30200838C800C838080003
:100FE0000000203F2000000010080808C838080052
:100FF0002038262120201800000000FE02020200F6
:101000000000007F40404000000C30C000000000A5
:10101000000000010638C00000020202FE000000CD
:10102000004040407F000000000004020202040073
:1010300000000000000000000000000000000000B0
:101040008080808080808080000202040000000098
:101050000000000000000000000080808080000090
:101060000019242222223F2008F80080800000007E
:10107000003F112020110E00000000808080000041
:10108000000E112020201100000000808088F80050
:10109000000E112020103F20000080808080000082
:1010A000001F222222221300008080F088888818E6
:1010B0000020203F202000000000808080808000F1
:1010C000006B94949493600008F800808080000086
:1010D000203F210000203F20008098980000000061
:1010E0000020203F20200000000000809898000091
:1010F00000C08080807F000008F8000080808000B1
:10110000203F24022D302000000808F800000000D5
:101110000020203F20200000808080808080800090
:10112000203F20003F20003F808000808080000022
:10113000203F210000203F200000808080800000B0
:10114000001F202020201F008080008080000000E1
:1011500080FFA12020110E00000000808080800010
:10116000000E112020A0FF80808080008080800001
:1011700020203F212000010000008080808080002E
:101180000033242424241900008080E080800000A3
:101190000000001F202000008080000000808000F0
:1011A000001F202020103F20808080000080808051
:1011B00000010E30080601008080008000808080E1
:1011C0000F300C030C300F00008080008080800006
:1011D0000020312E0E312000808080000080808031
:1011E00080818E70180601000080808080808000E1
:1011F0000021302C2221300000000000807C0202FF
:1012000000000000003F404000000000FF00000020
:1012100000000000FF0000000002027C80000000CF
:101220000040403F000000000006010102020404EB
:10123000000000000000000058120008000000201C
:101240001C00000028010008741200081C00002087
:1012500064060000440100080000000001020304CD
:10126000010203040607080902040608000102033C
:041270000405000071
:04000005080000ED02
:00000001FF
