:020000040800F2
:1000000038040020010100084108000853030008DB
:100010003D08000849010008250F00080000000005
:10002000000000000000000000000000B10C00080B
:100030004D010008000000009B0B00089D0D00080A
:100040001B0100081B0100081B0100081B01000820
:100050001B0100081B01000895010008C9010008E8
:100060001B0100081B0100081B0100081B01000800
:100070001B0100081B0100081B0100081B010008F0
:100080001B0100081B0100081B0100081B010008E0
:100090001B0100081B0100081B0100081B010008D0
:1000A0001B0100081B0100081B0100081B010008C0
:1000B0001B0100081B0100081B0100081B010008B0
:1000C0001B0100081B0100081B0100081B010008A0
:1000D0001B010008010E00081B0100081B0100089D
:1000E0001B0100081B0100081B010008DFF80CD0F1
:1000F00000F018F800480047490F000838040020B5
:100100000648804706480047FEE7FEE7FEE7FEE7B1
:10011000FEE7FEE7FEE7FEE7FEE7FEE7A10D0008CB
:10012000ED000008064C074D06E0E06840F00103D2
:1001300094E8070098471034AC42F6D3FFF7DAFF93
:100140002C1600084C16000800BFFEE7704700B5EB
:10015000034603E04FF47A7000F005F8181EA3F18F
:100160000103F7D100BD00EBC001C9004FF0E02250
:100170005161002191610521116100BF4FF0E02123
:10018000096901F480310029F8D004214FF0E02200
:100190001161704710B5012000F036F801280DD12B
:1001A0000221074800F0C7F828B906480088401C1B
:1001B00000B204490880012000F020F810BD0000C2
:1001C000000C01402200002010B5022000F01CF8B5
:1001D00001280DD10121074800F0ADF828B90648E3
:1001E0000088401E00B204490880022000F006F892
:1001F00010BD0000000C01402200002001490860F1
:10020000704700001404014001460020034A1268B0
:100210000A400AB1012000E00020704714040140A8
:100220002DE9F0410246002500260020002300248D
:10023000002791F803C00CF00F0591F803C00CF0F3
:10024000100CBCF1000F03D091F802C04CEA050578
:1002500091F800C0BCF1000F31D0146800202BE0F1
:100260004FF0010C0CFA00F3B1F800C00CEA0306E1
:100270009E4220D183004FF00F0C0CFA03F7BC43D1
:1002800005FA03FC4CEA040491F803C0BCF1280F02
:1002900006D14FF0010C0CFA00FCC2F814C00AE0C1
:1002A00091F803C0BCF1480F05D14FF0010C0CFAD6
:1002B00000FCC2F810C0401C0828D1D31460B1F86B
:1002C00000C0BCF1FF0F34DD546800202EE000F1C7
:1002D000080C4FF0010808FA0CF3B1F800C00CEA62
:1002E00003069E4221D183004FF00F0C0CFA03F756
:1002F000BC4305FA03FC4CEA040491F803C0BCF1CA
:10030000280F05D100F1080C08FA0CF8C2F8148087
:1003100091F803C0BCF1480F07D100F1080C4FF071
:10032000010808FA0CF8C2F81080401C0828CED347
:100330005460BDE8F0810246002093680B400BB189
:10034000012000E0002070470AB1016100E0416136
:10035000704700BFFEE721B1028842F4806202804C
:1003600004E002884FF6FF331A400280704770B5F0
:1003700002460024002500230020958A138B1B04CD
:1003800045EA030626F07F4404EA01068E4201D1C5
:10039000012000E0002070BD002221F07F42D34305
:1003A0008382704721B1028842F00102028004E09A
:1003B00002884FF6FE731A400280704721B102880E
:1003C00042F48072028004E002884FF6FF631A4014
:1003D0000280704721B1028842F40072028004E07A
:1003E00002884FF6FF531A40028070470CB5024650
:1003F000002000230193009300920B0F019321F042
:100400007F41019B1BB1009B1433009303E0090C57
:10041000009B18330093009B1B680B400BB101201D
:1004200000E000200CBD000010B501210148FFF7DD
:1004300092FF10BD0058004070B505460C4622469C
:1004400029461A4800F054F9BCB10FE01849174882
:10045000FFF7CCFF012809D115491448FFF79CFF8D
:1004600001211248FFF7B6FF012070BD11490F4866
:10047000FFF77DFF0128E9D116E00FE00C490B489A
:10048000FFF7B4FF012809D109490848FFF784FFA5
:1004900001210648FFF79EFF0120E6E706490348D1
:1004A000FFF765FF0128E9D10020DEE70058004092
:1004B00000040010020003008200070000B585B0B0
:1004C0000121880500F06AFB0121082000F076FB7D
:1004D0001C208DF813004FF44060ADF8100003208D
:1004E0008DF8120004A90F48FFF79AFE4FF48060C0
:1004F000ADF80A000001ADF80C000B4800904FF475
:100500008040ADF806000020ADF80400ADF808000A
:100510006946064800F072F801210448FFF742FFDF
:1005200005B000BD000C01408038010000580040BB
:1005300010B500210148FFF70EFF10BD0058004024
:1005400070B50446002514B1FFF76EFF05E0FFF714
:10055000EFFF01210748FFF73DFF00BF06490548AF
:10056000FFF705FF0128F9D1024800F0BDF8054664
:10057000284670BD005800404000030010B50446F6
:1005800021460E4800F0BDF80FE00D490B48FFF77B
:100590002DFF012809D10A490848FFF7FDFE012176
:1005A0000648FFF717FF012010BD06490348FFF773
:1005B000DEFE0128E9D10020F6E7000000580040E7
:1005C000000400108400070010B501210548FFF762
:1005D000F5FE00BF04490348FFF7C9FE0128F9D121
:1005E00010BD0000005800400100030010B50121BB
:1005F0000148FFF7EFFE10BD005800402DE9F04321
:1006000085B004460D460026B1460427DFF8CC80AD
:10061000A6884FF6C0700640684600F0DFFADDF8A5
:1006200008802F48B8FBF0F01FFA80F946EA090667
:10063000A68020884FF6FE710840208000262949B8
:10064000286888420CD828684000B8FBF0F087B2D0
:10065000042F00DA04273E4309F10100208427E03B
:10066000E8884BF6FF71884206D1286800EB40000D
:10067000B8FBF0F087B209E0286800EBC00101EB9D
:100680000010B8FBF0F087B247F48047C7F30B00C7
:1006900008B947F0010747F4004006434FF496704D
:1006A00009FB00F04FF47A7190FBF1F0401C2084BC
:1006B000A683208840F00100208026884FF6F53080
:1006C0000640A8886989084306432680A8892989A5
:1006D0000843208105B0BDE8F083000000127A00D5
:1006E00040420F00A08601000146088AC0B2704750
:1006F00012B141F0010102E04FF6FE731940018290
:1007000070470182704710B5FFF7D8FE01216B20BA
:1007100000F07EF800216C2000F07AF80921192001
:1007200000F076F806211A2000F072F818211B203C
:1007300000F06EF818211C2000F06AF810BD0000CF
:1007400070B5044600250026FFF73EFF00212F4824
:100750000078FFF771FE3B20FFF710FFFFF734FF33
:1007600001212A480078FFF767FE0120FFF7E8FE25
:1007700005460120FFF7E4FE064646EA052000B2E2
:1007800020800120FFF7DCFE05460120FFF7D8FEA0
:10079000064646EA052000B260800120FFF7D0FE41
:1007A00005460120FFF7CCFE064646EA052000B2CA
:1007B000A0800120FFF7C4FE0120FFF7C1FE012049
:1007C000FFF7BEFE05460120FFF7BAFE064646EAE1
:1007D000052000B2E0800120FFF7B2FE05460120AF
:1007E000FFF7AEFE064646EA052000B22081012052
:1007F000FFF7A6FE05460020FFF7A2FE064646EAE2
:10080000052000B26081FFF7F1FE70BD24000020DA
:1008100070B505460C46FFF7D7FE00210648007864
:10082000FFF70AFE2846FFF7A9FE2046FFF7A6FEBF
:10083000FFF7DCFE70BD00002400002000BFFEE7D3
:10084000704770B500240EE00021204600F0F3F858
:10085000002504E0002000F090F9681CC5B2802D4E
:10086000F8DB601CC4B2082CEEDB70BD08B50121BA
:10087000082000F0A3F914208DF8030003208DF860
:1008800002004FF48070ADF8000069460A48FFF797
:10089000C7FC4FF40070ADF8000069460648FFF74A
:1008A000BFFC012211020448FFF74EFD0122510254
:1008B0000148FFF749FD08BD000C014070B5054631
:1008C000002419E080202041284008B1012000E0E8
:1008D000002002464FF400710E48FFF735FD01225B
:1008E00011020C48FFF730FD00224FF480710948D7
:1008F000FFF72AFD601CC4B2082CE3DB01221102C1
:100900000448FFF721FD00224FF480710148FFF7F2
:100910001BFD70BD000C014010B5012251020A48B8
:10092000FFF712FD012211020748FFF70DFD00221B
:100930004FF400710448FFF707FD00224FF4807167
:100940000148FFF701FD10BD000C014010B5002269
:100950004FF400710648FFF7F7FC0122110204482A
:10096000FFF7F2FC012251020148FFF7EDFC10BD38
:10097000000C014070B5002406E0002500E06D1C6D
:10098000B5F57A7FFBD3641CB4F57A7FF5D3FFF716
:100990006DFFAE2000F0E1F8D52000F0DEF88020F9
:1009A00000F0DBF8A82000F0D8F83F2000F0D5F8E0
:1009B000D32000F0D2F8002000F0CFF8402000F063
:1009C000CCF8A12000F0C9F8C82000F0C6F8DA2061
:1009D00000F0C3F8122000F0C0F8812000F0BDF84C
:1009E000CF2000F0BAF8D92000F0B7F8F12000F0DD
:1009F000B4F8DB2000F0B1F8302000F0AEF8A4200D
:100A000000F0ABF8A62000F0A8F88D2000F0A5F8C3
:100A1000142000F0A2F8AF2000F09FF8FFF711FFBC
:100A200070BD10B50246012000E050430B1EA1F13D
:100A30000101FAD110BD70B505460C4645F0B00075
:100A400000F08BF8102141EA141000F086F804F051
:100A50000F0000F082F870BD2DE9F04105460E460A
:100A60001746721ED206110E6A1E5206100EFFF7AE
:100A7000E2FF002409E0A7F12001134A02EB011173
:100A8000085D00F07AF8601CC4B2082CF3DB721E1B
:100A9000D206110E6A1E012303EB4202D0B2FFF709
:100AA000CAFF00240BE0A7F12001074A02EB011264
:100AB00004F10801505C00F060F8601CC4B2082C1E
:100AC000F1DBBDE8F08100003C1000082DE9F047A3
:100AD0008146884615461E46002D06DB2B224146E0
:100AE0004846FFF7B9FF2F4605E02D22414648460C
:100AF000FFF7B2FF6F42002417E0301B411E0A20AF
:100B0000FFF78FFFB7FBF0F00A21B0FBF1F201FB1A
:100B1000120000F1300A08EB0400401CC1B252463A
:100B20004846FFF799FF601CC4B2B442E5DBBDE85C
:100B3000F0872DE9F04107460E461546002407E0F0
:100B40002A5D3019C1B23846FFF786FF601CC4B277
:100B5000285D0028F4D1BDE8F08110B50446FFF708
:100B6000DBFE7820FFF7AAFE0020FFF7A7FE204655
:100B7000FFF7A4FEFFF7EAFE10BD10B50446FFF72D
:100B8000CBFE7820FFF79AFE4020FFF797FE204625
:100B9000FFF794FEFFF7DAFE10BD704729B1064A51
:100BA000D2690243044BDA6104E0034AD26982430A
:100BB000014BDA61704700000010024029B1064A7B
:100BC00092690243044B9A6104E0034A92698243AA
:100BD000014B9A61704700000010024030B50021BF
:100BE0000022002400232D4D6D6805F00C0121B179
:100BF000042905D0082923D105E0294D056022E00C
:100C0000274D05601FE0254D6D6805F47012234DDA
:100C10006D6805F48034022505EB92421CB9214D24
:100C2000554305600BE01D4D6D6805F400351DB1A1
:100C30001C4D5543056002E0194D5543056002E027
:100C4000174D056000BF00BF144D6D6805F0F00141
:100C50000909154D6B5C0568DD4045600F4D6D68F9
:100C600005F4E061090A104D6B5C4568DD40856064
:100C70000A4D6D6805F46051C90A0B4D6B5C4568FF
:100C8000DD40C560054D6D6805F44041890B074D99
:100C90006B5CC568B5FBF3F5056130BD0010024023
:100CA00000127A0000093D00000000201000002022
:100CB000704710B500F002F810BD00000CB5002020
:100CC000019000903348006840F48030314908605A
:100CD00000BF3048006800F4003000900198401CCC
:100CE0000190009818B90198B0F5A06FF1D129488A
:100CF000006800F4003010B10120009001E00020F5
:100D000000900098012843D12348006840F010006B
:100D1000214908600846006820F003000860084682
:100D2000006840F0020008601A48406819494860AD
:100D30000846406848600846406840F48060486063
:100D40000846406820F47C1048600846406840F43B
:100D5000E81048600846006840F08070086000BFF6
:100D60000C48006800F000700028F9D0094840687D
:100D700020F00300074948600846406840F0020040
:100D8000486000BF0348406800F00C000828F9D113
:100D90000CBD00000010024000200240704700001F
:100DA00010B51348006840F001001149086008467A
:100DB0004068104908400E494860084600680E49DE
:100DC00008400B4908600846006820F4802008604D
:100DD0000846406820F4FE0048604FF41F00886019
:100DE000FFF767FF4FF000600449086010BD000086
:100DF000001002400000FFF8FFFFF6FE08ED00E0E3
:100E000010B540F22551214800F05DF800283CD093
:100E10001E4800F082F8C4B21D48007820B10128B5
:100E20000BD0022822D118E0FF2C05D1012018494F
:100E300008700020174908701CE0164801780078F7
:100E4000401C144A1070144844541046007804287A
:100E500002DB02200E4908700CE0FE2C02D10120BA
:100E60000E49087000200A49087003E00020084974
:100E7000087000BF00BF0A480470012009490870CB
:100E800040F22551014800F00FF810BD0038014034
:100E90001F00002020000020170000201600002066
:100EA000150000201400002010B50022002340F699
:100EB0006A14A14200D100BF0A1201249440A3B2D7
:100EC000DC43048010BD70B50246002400230025D9
:100ED000002040F66A16B14200D100BFC1F34215AE
:100EE00001F01F03012606FA03F3012D02D19689B2
:100EF000334006E0022D02D1168A334001E0968A83
:100F000033400C12012606FA04F41688344013B15B
:100F10000CB1012000E0002070BD01468888C0F3BC
:100F20000800704700BFFEE702E008C8121F08C1B2
:100F3000002AFAD170477047002001E001C1121F5A
:100F4000002AFBD170470000FFF714FD30A20121F9
:100F50000846FFF7EEFDFFF7D6FB2EA2012108465B
:100F6000FFF7E7FD2EA201210220FFF7E2FD2DA2EF
:100F700001210320FFF7DDFD2BA201210420FFF753
:100F8000D8FD2AA209210220FFF7D3FD28A20921BA
:100F90000320FFF7CEFD27A209210420FFF7C9FD9A
:100FA00035E02548FFF7CCFB2348B0F900200423A7
:100FB00003210220FFF78AFD1F48B0F90220042315
:100FC00003210846FFF782FD1B48B0F904200423E3
:100FD00003211846FFF77AFD1748B0F906200423CD
:100FE0000C210220FFF772FD1348B0F908200423FA
:100FF0000C210320FFF76AFD0F48B0F90A200423F3
:101000000C211846FFF762FD0A20FFF7A0F8C8E799
:10101000310000004D5055363035303A00000000A8
:10102000583A0000593A00005A3A000058613A0014
:1010300059613A005A613A0028000020000000007F
:10104000000000000000000000000000000000F8A8
:1010500000000000000000333000000000100C060B
:10106000100C0600000000000000000040C07840A6
:10107000C0784000043F04043F040400007088FC72
:1010800008300000001820FF211E0000F008F000CA
:10109000E018000000211C031E211E0000F008883B
:1010A000700000001E2123241927211010160E00A5
:1010B000000000000000000000000000000000E050
:1010C0001804020000000007182040000002041865
:1010D000E00000000040201807000000404080F0C1
:1010E000804040000202010F01020200000000F0F7
:1010F000000000000101011F0101010000000000CB
:101100000000000080B0700000000000000000003F
:1011100000000000000101010101010100000000C8
:10112000000000000030300000000000000000005F
:1011300080601804006018060100000000E010083C
:101140000810E000000F102020100F00001010F811
:10115000000000000020203F202000000070080850
:1011600008887000003028242221300000300888D0
:10117000884830000018202020110E000000C020F8
:1011800010F8000000070424243F240000F8088819
:10119000880808000019212020110E0000E01088A6
:1011A00088180000000F112020110E0000380808D8
:1011B000C83808000000003F0000000000708808E8
:1011C00008887000001C222121221C0000E0100869
:1011D0000810E0000000312222110F00000000C0C2
:1011E000C00000000000003030000000000000805F
:1011F000000000000000806000000000000080404F
:101200002010080000010204081020004040404067
:1012100040404000040404040404040000081020BA
:1012200040800000002010080402010000704808FF
:101230000808F0000000003036010000C030C82867
:10124000E810E0000718272423140B000000C03822
:10125000E0000000203C23020227382008F888889C
:1012600088700000203F202020110E00C0300808A8
:1012700008083800071820202010080008F808087F
:101280000810E000203F202020100F0008F8888878
:10129000E8081000203F20202320180008F8888844
:1012A000E8081000203F200003000000C0300808BC
:1012B0000838000007182020221E020008F8080045
:1012C0000008F808203F210101213F20000808F80C
:1012D000080800000020203F20200000000008082F
:1012E000F8080800C08080807F00000008F888C0EF
:1012F00028180800203F20012638200008F80800A0
:1013000000000000203F20202020300008F8F800D6
:10131000F8F80800203F003F003F200008F830C0E8
:101320000008F808203F200007183F00E0100808D8
:101330000810E0000F10202020100F0008F8080807
:101340000808F000203F210101010000E01008081A
:101350000810E0000F18242438504F0008F888883F
:1013600088887000203F2000030C3020007088081F
:10137000080838000038202121221C00180808F82D
:10138000080818000000203F2000000008F80800AE
:101390000008F808001F202020201F00087888007F
:1013A00000C83808000007380E010000F80800F8EF
:1013B0000008F800033C0700073C03000818688099
:1013C0008068180820302C03032C30200838C8000F
:1013D000C83808000000203F20000000100808085E
:1013E000C83808002038262120201800000000FE00
:1013F000020202000000007F40404000000C30C0AC
:1014000000000000000000010638C00000020202D7
:10141000FE000000004040407F0000000000040289
:1014200002020400000000000000000000000000B4
:1014300000000000808080808080808000020204A4
:10144000000000000000000000000000000080809C
:10145000808000000019242222223F2008F800800A
:1014600080000000003F112020110E0000000080CD
:1014700080800000000E112020201100000000805C
:101480008088F800000E112020103F20000080808E
:1014900080800000001F222222221300008080F0A2
:1014A000888888180020203F2020000000008080CD
:1014B00080808000006B94949493600008F8008012
:1014C00080800000203F210000203F20008098986D
:1014D000000000000020203F2020000000000080CD
:1014E0009898000000C08080807F000008F800000D
:1014F00080808000203F24022D302000000808F862
:10150000000000000020203F20200000808080801C
:1015100080808000203F20003F20003F80800080AE
:1015200080800000203F210000203F2000008080BC
:1015300080800000001F202020201F00808000806D
:101540008000000080FFA12020110E00000000801C
:1015500080808000000E112020A0FF80808080000D
:101560008080800020203F2120000100000080803A
:10157000808080000033242424241900008080E02F
:10158000808000000000001F2020000080800000FC
:1015900000808000001F202020103F2080808000DD
:1015A0000080808000010E300806010080800080ED
:1015B000008080800F300C030C300F000080800012
:1015C000808080000020312E0E312000808080003D
:1015D0000080808080818E701806010000808080ED
:1015E000808080000021302C22213000000000008B
:1015F000807C020200000000003F4040000000002C
:10160000FF00000000000000FF0000000002027C5C
:10161000800000000040403F000000000006010183
:101620000202040400000000000000004C16000844
:101630000000002028000000280F00087416000891
:101640002800002010040000380F000800000000EF
:101650000102030401020304060708090204060844
:10166000000000000000000000000000000000007A
:04167000D0000000A6
:04000005080000ED02
:00000001FF
